:020000040800F2
:1000000098450020A90B0008613300087D330008E3
:1000100091330008A5330008B93300080000000040
:10002000000000000000000000000000CD330008C8
:10003000D933000800000000E5330008F133000860
:10004000090C0008090C0008090C0008011500083B
:10005000090C0008090C0008090C0008090C00082C
:10006000090C00081B2F0008090C0008292F0008A4
:10007000090C0008090C0008090C0008090C00080C
:10008000090C0008090C0008B9030008090C000855
:10009000090C0008090C0008090C0008090C0008EC
:1000A0003B24000855240008472400088D2400083C
:1000B0003525000815260008E5260008090C00086B
:1000C000090C0008090C0008090C0008090C0008BC
:1000D000090C00084D3F00085B3F0008693F00081D
:1000E000090C000841150008090C0008F92800084F
:1000F000112900080529000849290008090C0008F1
:10010000090C0008090C0008B5270008090C0008B4
:10011000773F0008853F000889280008C1280008AB
:10012000090C0008090C0008B12F0008493000082C
:100130005FF808F110B5054C237833B9044B13B1BF
:100140000448AFF300800123237010BD580A00203B
:1001500000000000CC76010808B5034B1BB1034931
:100160000348AFF3008008BD000000005C0A0020D7
:10017000CC76010880B483B000AF78607B68184605
:100180000C37BD4680BC704780B582B000AF786048
:100190007B681B78194603232822786801F023FE28
:1001A0007B6818460837BD4680BD000080B483B028
:1001B00000AF0023FB80074B9B8BFB80054B1B8B09
:1001C0009BB21A04FB88134318460C37BD4680BC0B
:1001D000704700BF0028004080B584B000AFF860D1
:1001E000B9607A607A68B968F86800F00FF8FB685F
:1001F00018461037BD4680BD80B483B000AF78602C
:100200007B6818460C37BD4680BC704780B584B00B
:1002100000AFF860B9607A60FB68BA681A60FB6882
:100220007A685A60FB681B68002B06D10323002202
:100230000421F86801F0D7FD05E003230022052121
:10024000F86801F0D0FD00BF1037BD4680BD80B515
:1002500086B000AF786001214FF0005001F04AFDF8
:100260007B681B680021184600F05EFE00F01BFE54
:100270007B685B68BB600023FB6000237B617B685D
:100280001B6807F108021146184600F01BFE7B6848
:100290001B680121184600F047FE00BF1837BD4615
:1002A00080BD000080B590B002AFF860B9607A60A0
:1002B0003B6001214FF0005001F01CFD07F12803C5
:1002C000396C184601F08AFE032300220421F868E5
:1002D00001F089FD032300220521F86801F083FD68
:1002E00007F128033968184602F058F807F1280387
:1002F0002021184602F08DF8FB685B68BB61002383
:10030000FB6100237B6207F118031946002000F00F
:10031000D9FD07F118031946102000F0D3FD07F1AD
:1003200014032249184602F023FF07F1140020238A
:1003300000937B68BA681E4902F03FFF07F114037F
:100340000121184602F074FFBB681B687B63194AE1
:100350007B6B13620121002000F0E6FD01211020DB
:1003600000F0E2FD0121002000F002FE07F1280369
:10037000184601F0B9FF07F11403184602F006FF12
:1003800007F12803184601F037FE0CE007F11403CB
:10039000184602F0FBFEFFE707F12803184601F0BC
:1003A0002BFE0DF06BFE3837BD4680BD3004024099
:1003B000207400400074004080B500AF02211A484C
:1003C00002F0FFFB0346012B0CBF01230023DBB22D
:1003D000002B27D0144802F0E8FB03461946134BC4
:1003E0001B889BB21A46C1F30B0399B2104B23F83A
:1003F00012100E4B1B889BB201339BB20B4A19465D
:100400001180022B8CBF01230023DBB2002B02D012
:10041000064B00221A80074B1B889BB201339AB20D
:10042000044B1A8000BF80BD002401407A0A0020DE
:10043000740A00207E0A002080B483B000AF786088
:1004400039603B68002B04DB3B680F2B01DC1C4B45
:1004500030E03B680F2B04DD3B681F2B01DC194BA0
:1004600028E03B681F2B04DD3B682F2B01DC164B7B
:1004700020E03B682F2B04DD3B683F2B01DC134B56
:1004800018E03B683F2B04DD3B684F2B01DC104B31
:1004900010E03B684F2B04DD3B685F2B01DC0D4B0C
:1004A00008E03B685F2B04DD3B686F2B01DC0A4BE7
:1004B00000E0002318460C37BD4680BC704700BFE3
:1004C00000080140000C01400010014000140140F0
:1004D00000180140001C01400020014080B483B09E
:1004E00000AF786039603B685A4203F00F0302F0B6
:1004F0000F0258BF5342012202FA03F39BB218467F
:100500000C37BD4680BC704780B485B000AF7860C2
:1005100039600023FB817B681B88FB817B682E4A46
:10052000934213D07B682D4A93420FD07B68B3F17E
:10053000804F0BD07B682A4A934207D07B68294AB8
:10054000934203D07B68284A934208D1FB8923F069
:100550007003FB813B685A88FB891343FB817B68EE
:10056000224A93420CD07B68214A934208D0FB89EF
:1005700023F44073FB813B68DA88FB891343FB81DA
:100580007B68FA891A803B689A887B689A853B6801
:100590001A887B681A857B680F4A93420FD07B6864
:1005A0000E4A93420BD07B68124A934207D07B6875
:1005B000114A934203D07B68104A934204D13B68AE
:1005C0001B7A9AB27B681A867B6801229A8200BFE6
:1005D0001437BD4680BC7047002C014000340140F8
:1005E0000004004000080040000C004000100040E3
:1005F0000014004000400140004401400048014018
:1006000080B483B000AF78607B684FF6FF729A8049
:100610007B6800221A807B680022DA807B680022D7
:100620005A807B6800221A7200BF0C37BD4680BC1E
:10063000704780B483B000AF78600B46FB70FB78E6
:10064000002B08D07B681B889BB243F001039AB251
:100650007B681A8007E07B681B889BB223F001034C
:100660009AB27B681A8000BF0C37BD4680BC7047C9
:1006700080B483B000AF78600B46FB70FB78002B32
:100680000CD07B68B3F844309BB26FEA43436FEA07
:1006900053439AB27B68A3F8442009E07B68B3F81F
:1006A00044309BB2C3F30E039AB27B68A3F8442094
:1006B00000BF0C37BD4680BC704780B483B000AF2C
:1006C00078600B46FB70FB78002B08D07B681B889A
:1006D0009BB243F080039AB27B681A8007E07B6884
:1006E0001B889BB223F080039AB27B681A8000BFFC
:1006F0000C37BD4680BC704780B483B000AF7860D3
:100700000B467B807B689B889BB223F070039AB278
:100710007B689A807B689B889AB27B8813439AB2E5
:100720007B689A8000BF0C37BD4680BC704780B4A0
:1007300085B000AF78600B467B800023FB730023FD
:10074000BB8100237B817B681B8A9AB27B88134024
:10075000BB817B689B899AB27B8813407B81BB8974
:10076000002B05D07B89002B02D00123FB7301E015
:100770000023FB73FB7B18461437BD4680BC7047D3
:1007800080B483B000AF78600B467B807B88DB430E
:100790009AB27B681A8200BF0C37BD4680BC704796
:1007A00080B500AF154B1B68144A43F0010313607A
:1007B000124B5A681149124B13404B600F4B1B6888
:1007C0000E4A23F0847323F4803313600B4B1B68B1
:1007D0000A4A23F480231360084B5B68074A23F41A
:1007E000FE035360054B4FF41F029A6000F00CF8B3
:1007F000044B4FF000629A6000BF80BD00100240C1
:100800000000FFF800ED00E080B500AF00F002F856
:1008100000BF80BD80B483B000AF00237B600023A5
:100820003B603A4B1B68394A43F480331360374BC3
:100830001B6803F400333B607B6801337B603B68DB
:10084000002B03D17B68B3F5A06FF0D12F4B1B6851
:1008500003F40033002B02D001233B6001E00023AE
:100860003B603B68012B4BD1294B1B68284A43F066
:1008700010031360264B1B68254A23F00303136003
:10088000234B1B68224A43F0020313601F4B1F4A8D
:100890005B6853601D4B1D4A5B6853601B4B5B6874
:1008A0001A4A43F480635360184B5B68174A23F479
:1008B0007C135360154B5B68144A43F4E813536090
:1008C000124B1B68114A43F08073136000BF0F4B3B
:1008D0001B6803F00073002BF9D00C4B5B680B4ACC
:1008E00023F003035360094B5B68084A43F002039B
:1008F000536000BF054B5B6803F00C03082BF9D174
:1009000000BF0C37BD4680BC704700BF00100240DE
:100910000020024080B483B000AF78607B68184646
:100920000C37BD4680BC704780B582B000AF7860A0
:10093000786800F0BAF87B6818460837BD4680BD75
:1009400080B586B002AF78607B6859687B689A8909
:10095000032300931023786801F026FA7B689968D6
:100960007B68DA89032300931023786801F01CFA6E
:100970007B689A897B685B681A617B68DA897B6827
:100980009B681A6100F026FF7B689B891A047B68CC
:100990005B681A6100F01EFF0023FB60FB68092BF7
:1009A00012DC7B68DB891A047B689B681A6100F0A3
:1009B00011FF7B68DA897B689B681A6100F00AFF87
:1009C000FB680133FB60E9E77B689A897B685B68B9
:1009D0001A617B6859687B689A8903230093142302
:1009E000786801F0E1F97B6899687B68DA8903230C
:1009F00000931423786801F0D7F9052000F0F8FE81
:100A00007B685B689B687A6892891340002B07D0EB
:100A10007B689B689B687A68D2891340002B01D160
:100A2000012300E00023002B02D06FF0030300E05D
:100A3000002318461037BD4680BD80B584B000AF96
:100A4000F860B9607A603B60FB68BA681A607968E0
:100A5000F868FFF743FD03461A46FB689A81396838
:100A6000F868FFF73BFD03461A46FB68DA817968B0
:100A7000F868FFF7E1FC0246FB685A603968F868DD
:100A8000FFF7DAFC0246FB689A60F868FFF758FF48
:100A90000346DB0FDBB2002B02D06FF0030300E054
:100AA000002318461037BD4680BD80B584B002AF24
:100AB00078607B6859687B689A8903230093482390
:100AC000786801F071F97B6899687B68DA8903239B
:100AD00000934823786801F067F900BF0837BD46E6
:100AE00080BD80B483B000AF78607B6818460C3757
:100AF000BD4680BC704780B582B000AF78607B682F
:100B0000196803234822786801F06DF97B6818465C
:100B10000837BD4680BD80B584B000AFF860B960CD
:100B20001346FB71FB68BA681A60FB68FA791A71A0
:100B300002231022B968F86801F055F900BF103798
:100B4000BD4680BD80B582B000AF78607B681B7900
:100B5000002B06D07B681B681946786801F061F9A4
:100B600005E07B681B681946786801F071F900BFE1
:100B70000837BD4680BD90B583B000AF78607B6814
:100B80001C687B681B681946786801F091F9034678
:100B900083F00103DBB21A462146786801F071F94F
:100BA00000BF0C37BD4690BD80B582B000AF114B81
:100BB0007B60114B3B6007E07A68131D7B603B68EC
:100BC000191D396012681A603B680C4A9342F3D3CE
:100BD0000B480C494FF000028842B8BF40F8042B84
:100BE000FADBFFF7DDFD00F06BFA00BF0837BD460A
:100BF00080BD00BF447A010800000020580A002090
:100C0000580A0020881A002080B400AFFEE780B4A4
:100C100089B000AF786039600023FB6100233B613D
:100C20000023BB610023FB6000237B610023BB60CA
:100C30003B68DB7803F00F03FB613B68DB7803F074
:100C40001003002B05D03B689B781A46FB691343C1
:100C5000FB613B681B88DBB2002B44D07B681B68C0
:100C60007B610023BB6138E00122BB6902FA03F318
:100C7000FB603B681B881A46FB6813403B613A697E
:100C8000FB689A4226D1BB699B00FB600F22FB6880
:100C900002FA03F3BB60BB68DB437A6913407B61F4
:100CA000FA69FB6802FA03F37A6913437B613B68D4
:100CB000DB78282B05D10122BB699A407B685A61F9
:100CC00008E03B68DB78482B04D10122BB699A40DD
:100CD0007B681A61BB690133BB61BB69072BC3D950
:100CE0007B687A691A603B681B88FF2B46D97B6852
:100CF0005B687B610023BB613AE0BB69083301227A
:100D000002FA03F3FB603B681B881A46FB6813403A
:100D10003B613A69FB689A4227D1BB699B00FB6043
:100D20000F22FB6802FA03F3BB60BB68DB437A69FE
:100D300013407B61FA69FB6802FA03F37A69134393
:100D40007B613B68DB78282B05D1BB690833012226
:100D50009A407B685A613B68DB78482B05D1BB69B8
:100D6000083301229A407B681A61BB690133BB6179
:100D7000BB69072BC1D97B687A695A6000BF2437E9
:100D8000BD4680BC704780B483B000AF78607B689C
:100D90004FF6FF721A807B6802229A707B680422E9
:100DA000DA7000BF0C37BD4680BC704780B487B096
:100DB00000AF78600B46FB7000233B610023FB60B3
:100DC00000237B610023BB607B68002B03DA2E4B82
:100DD000DB697B6102E02C4B5B687B617B681B0CF1
:100DE00003F00F03BB607B689BB23B617B6803F43D
:100DF0004013B3F5401F0AD17B6923F070637B6118
:100E0000214B5B68204A23F07063536021E07B68CC
:100E100003F48013002B0ED00322BB6802FA03F305
:100E2000FB60FB68DB437A6913407B617B6943F0BD
:100E300070637B610DE07B685B0D1B013A6902FA10
:100E400003F3DB437A6913407B617B6943F0706392
:100E50007B61FB78002B08D07B685B0D1B013A6936
:100E600002FA03F37A6913437B617B68002B03DA90
:100E7000054A7B69D36102E0034A7B69536000BF86
:100E80001C37BD4680BC70470000014000B5D0F85B
:100E900000D0BDE8F09F2DE9F05FC0F800D0D1F898
:100EA00000D0BDE8F09F80B500AF01214FF00050A9
:100EB00000F05CFF00214FF0005000F057FF00BF32
:100EC00080BD000080B485B000AF78603960002339
:100ED000FB600023BB60134B1B68FB6040F6FE7297
:100EE0007B6802FA03F3DB43FA681340FB603B685C
:100EF0001A683B685B681A433B689B681A433B6807
:100F0000DB681343BB60BA687B6802FA03F3FA68D4
:100F10001343FB60034AFB68136000BF1437BD46F0
:100F200080BC70470074004080B483B000AF78602C
:100F30000B46FB70FB78002B09D00C4B1A68012183
:100F40007B6801FA03F3094913430B6009E0074B7F
:100F50001A6801217B6801FA03F3DB43034913405C
:100F60000B6000BF0C37BD4680BC7047007400406A
:100F700080B483B000AF78600B46FB70FB78002B29
:100F80000AD00D4B1A684FF480517B6801FA03F3C5
:100F9000094913430B600AE0074B1A684FF480516C
:100FA0007B6801FA03F3DB43034913400B6000BF86
:100FB0000C37BD4680BC70470074004080B483B0DD
:100FC00000AF03463960FB7197F90730002B0DDA4B
:100FD0003B68DAB20E4997F90730DBB203F00F0332
:100FE000043B1201D2B20B441A760BE03B68DBB231
:100FF000084A97F9071008461B01D9B213180A4688
:1010000083F8002300BF0C37BD4680BC704700BF8B
:1010100000ED00E000E100E080B582B000AF786054
:101020007B68B3F1807F01D3012311E07B6823F05B
:101030007F43094A013B53600F214FF0FF30FFF718
:10104000BDFF054B00229A60034B07221A60002364
:1010500018460837BD4680BD10E000E080B584B07A
:1010600004AF002303930023029300230193002382
:1010700000934FF4A0630E4A0E49002000F066FA78
:101080000023039300230293002301930023009382
:101090004FF48063084A0949022000F057FA002003
:1010A00000F0B8FA022000F0B5FA00BFBD4680BDDE
:1010B000F80A0020AD110008F8130020C91200083A
:1010C000B0B58CB002AF00F06FF94FF4407002F091
:1010D0009BFB00F0A8F9294B1B68294AA2FB0323BC
:1010E0009B091846FFF798FF0346002B14BF012306
:1010F0000023DBB2002B00D0FEE7224B3C1D1D4637
:101100000FCD0FC40FCD0FC42B6823603B1D1846B5
:1011100006F02EFB03460C461B4AC2E900341B486E
:1011200000F0C0FB194800F0A1FC194802F0A4F936
:10113000012211211748FFF7EEFC1648FFF702FDC8
:101140004FF4807300934FF480734FF4E132002129
:10115000114801F075FC11490F4801F016FD104BC4
:101160000093162317220F490F48FFF766FCFFF77D
:1011700075FF002000F06EFAFEE700BF04000020BB
:10118000D34D6210985B0108900A0020D40A002019
:10119000DC0A0020F00A0020A00A0020785B010889
:1011A000A086010000540040E00A00202DE990488C
:1011B00082B000AF264B18CBC7E90034244BD3E9EB
:1011C0000012D7E90034C91A62EB04028B46944638
:1011D00040F2E7314FF00002624508BF594534BF85
:1011E00001230023DBB2002B2ED0194B18CBC7E90B
:1011F00000344FF4A061174800F03EF802464FF467
:10120000A0631549154801F094FC4FF4806114481F
:1012100000F032F802464FF4806312490F4801F0A3
:1012200088FC4FF48061104800F026F802464FF425
:1012300080630E49094801F07CFC0D49074801F024
:10124000A4FC0C48FFF797FC00F03CFAB6E700BF9F
:10125000880A0020F80A0020BC5B0108A00A0020D0
:10126000F80F0020CC5B0108F8130020DC5B0108BC
:10127000EC5B0108F00A002080B485B000AF786014
:1012800039607B68BB600023FB60FA683B689A4268
:101290000FD2BB685A1CBA601B78002B14BF012305
:1012A0000023DBB2002B03D1FB680133FB60ECE7CA
:1012B00000BF3A68FB68D31A18461437BD4680BC95
:1012C000704700000000000090B587B002AF002317
:1012D000FB60FB68232B3EDCF86804F01DF92CA3AF
:1012E000D3E9002304F082F903460C461846214650
:1012F0004FF00002284B04F0A3FA03460C461846B0
:10130000214602F047FE03460C461846214604F0EB
:1013100045FC0346BB604FF08941B86804F09CFD72
:101320000346BB601D49B86804F08EFC0346BB60F1
:10133000B86804F0E1FE03461C04B86804F0DCFE63
:10134000034644EA03021649FB6841F82320FB6880
:101350000133FB60BDE73B46142200211846FEF72F
:101360003BFF3B461846FEF772FF38460D4B009395
:101370004FF4E16324220A49FEF794FF00F0A2F93A
:10138000FCE73B461846FEF737FF0CF077FE00BF40
:101390005E3855297A6A4F400080764000E0FF446D
:1013A000F81700200014004080B500AFFFF7F8F9EF
:1013B0000121012000F080FC0121042000F07CFCD0
:1013C0000121082000F078FC0121102000F074FCBD
:1013D0000121202000F070FC0121402000F06CFC75
:1013E0000021012000F0A4FC0021042000F0A0FC5A
:1013F0000021082000F09CFC0021102000F098FC47
:101400000021202000F094FC0021402000F090FCFE
:101410000121032000F032FC01214FF4807000F024
:101420002DFC00BF80BD80B500AF00214FF00060F3
:1014300002F05EFA00BF80BD80B582B000AF786078
:1014400039607B68012B34D13B684FF6FF729342C1
:101450002FD11A4801F0DEFA194A1A49174805F047
:101460007FFF194800F00AFA154A1849164805F096
:1014700077FF1748FEF77EFE114A1649144805F01B
:101480006FFF154801F0E4FF0D4A1449124805F0BA
:1014900067FF1348FFF73EFA094A1249104805F062
:1014A0005FFF1148FFF71DFB054A10490E4805F084
:1014B00057FF00BF0837BD4680BD00BFA00A00200F
:1014C00000000020292A0008D40A002091180008F2
:1014D000D80A002089010008DC0A002065340008D1
:1014E000E00A002029090008F00A0020F70A000895
:1014F00080B500AF4FF6FF710120FFF79DFF80BD63
:1015000098B500AF0B4B9B889BB20A4A23F00103AE
:101510009BB29380084B1B680133074A1360FEF7A8
:1015200045FE03464FF00004044AC2E9003400BF00
:1015300098BD00BF00280040980A0020900A0020B3
:1015400080B400AF00BFBD4680BC704780B487B098
:1015500000AFF860B9607A603B60FB68002B02DB8B
:10156000FB68022B02DD6FF011034BE03B682C3B64
:101570007A68D1182648FA6813465B001344DB00EA
:10158000034419602249FA6813465B001344DB00E8
:101590000B441B687B617B692433BA681A601C4961
:1015A000FA6813465B001344DB000B4404333A6AC9
:1015B0001A601749FA6813465B001344DB000B44BA
:1015C00008337A6A1A601249FA6813465B001344BA
:1015D000DB000B440C33BA6A1A600D49FA681346F3
:1015E0005B001344DB000B441033FA6A1A600849AD
:1015F000FA6813465B001344DB000B4414331022DB
:101600001A70002318461C37BD4680BC704700BFC7
:10161000141A002080B483B000AF78607B68002B80
:1016200002DB7B68022B02DD6FF011030AE0084940
:101630007A6813465B001344DB000B441433022228
:101640001A70002318460C37BD4680BC704700BF97
:10165000141A002080B582B000AF78607B68002B40
:1016600002DB7B68022B02DD6FF011031FE01249E1
:101670007A6813465B001344DB000B4414331B7879
:10168000022B02D06FF0180311E00C4B01221A70EC
:101690000B4A7B6813600A4B1A6813465B001344BD
:1016A000DB00054A13441846FFF7F0FB00231846F9
:1016B0000837BD4680BD00BF141A002089180020DD
:1016C000101A002080B584B000AF2D4B1B68BB60A2
:1016D0002B4B1B687B602B4B1B78002B03D02A4BBA
:1016E0001B78002B01D0002346E00023FB603EE086
:1016F000BB680133BB60022B01DD0023BB60BA680D
:10170000224913465B001344DB000B4414331B785F
:1017100003F00803002B26D172B6BA681B491346A2
:101720005B001344DB000B4414331B7803F0060307
:10173000002B16D0BB68124A13607A6813465B0010
:101740001344DB00114A9818BA6813465B0013442F
:10175000DB000E4A13441946FFF79DFB62B60023D7
:101760000AE062B600E000BFFB680133FB60FB6883
:10177000022BBDDD6FF0100318461037BD4680BD4B
:10178000101A00208918002088180020141A002040
:1017900080B400AF00BF00BF00BF00BF00BF00BFEC
:1017A00000BF00BF00BF00BF00BFBD4680BC704788
:1017B00080B500AFFFF7ECFFFFF7EAFFFFF7E8FFA8
:1017C000FFF7E6FFFFF7E4FFFFF7E2FFFFF7E0FFB9
:1017D00000BF80BD80B500AFFFF7EAFFFFF7E8FF6D
:1017E000FFF7E6FFFFF7E4FFFFF7E2FF00BF80BD72
:1017F00080B485B000AF78601C4B1B685B091C4A45
:10180000A2FB0323DA097B6802FB03F37B60194B1D
:101810009B68FB60FA687B68D31A144A1268164901
:10182000A1FB02129209B3FBF2F102FB01F29B1A37
:10183000BB60FA68BB689A4206D900BF0D4B9A6834
:10184000BB689A42FAD80BE000BF0A4B9A68BB68A3
:101850009A42FAD900BF074B9A68BB689A42FAD8F5
:1018600000BF1437BD4680BC704700BF0400002095
:10187000C55A7C0A10E000E0D34D621080B483B0FA
:1018800000AF78607B6818460C37BD4680BC704757
:1018900080B483B000AF78607B6818460C37BD46D3
:1018A00080BC704780B582B000AF7860786800F087
:1018B00087FB786800F074FB274B0022DA60032373
:1018C00018220821786800F08EFA244B0022DA6092
:1018D0001C21786800F0A5FA032310221C217868E7
:1018E00000F081FA032310221D21786800F07BFAB2
:1018F000032310221F21786800F075FA184B00228C
:10190000DA60012300222E21786800F06CFA0123AE
:1019100018222F21786800F066FA124B0022DA6054
:101920003621786800F094FA012310223621786875
:1019300000F059FA3D21786800F073FA0123102273
:101940003D21786800F04FFA074B0022DA6000BFB3
:101950000837BD4680BD00BF00080140000C0140B3
:1019600000100140001401400018014080B582B011
:1019700000AF7860032318223E21786800F033FA24
:10198000032318223F21786800F02DFA0323182240
:101990003021786800F027FA032318223121786873
:1019A00000F021FA032318224721786800F01BFA7F
:1019B000032318224821786800F015FA032318221F
:1019C0004921786800F00FFA032318224A21786829
:1019D00000F009FA032318224B21786800F003FA7B
:1019E000032318224C21786800F0FDF90323182204
:1019F0004D21786800F0F7F9032318224E2178680A
:101A000000F0F1F9032318224F21786800F0EBF978
:101A1000032318223821786800F0E5F903231822FF
:101A20003921786800F0DFF9032318223A21786819
:101A300000F0D9F9032318223B21786800F0D3F98C
:101A4000032318223421786800F0CDF903231822EB
:101A50003521786800F0C7F9032318223721786808
:101A600000F0C1F900BF0837BD4680BD80B586B023
:101A700000AF78607868FFF779FF4FF020437B6113
:101A8000244B3B61244BFB607A6913686FF3CF33BF
:101A900013607A69136843F4804313607A691368AA
:101AA000012161F3051313607A6913686FF38303EF
:101AB00013607A6913686FF3410313607A691368DE
:101AC00043F0010313603A6913686FF31D731360E9
:101AD0003A691368092161F30F2313603A691368A7
:101AE000012161F303031360FA6813686FF31D7338
:101AF0001360FA681368022161F30F231360FA6818
:101B00001368012161F30303136000BF1837BD465A
:101B100080BD00BF040000A0040100A080B487B015
:101B200000AF786000237B6100233B610023FB60F2
:101B30000023BB604C4B5B6803F00C037B617B694B
:101B4000042B07D0082B09D0002B33D17B68474AE0
:101B50001A6033E07B68454A1A602FE0424B5B68AD
:101B600003F470133B61404B5B6803F48033FB600C
:101B70003B699B0C02333B61FB68002B06D13B6940
:101B80003B4A02FB03F27B681A6017E0364B5B6846
:101B900003F40033002B06D03B69354A02FB03F205
:101BA0007B681A600AE03B69304A02FB03F27B68FB
:101BB0001A6003E07B682D4A1A6000BF2A4B5B68FD
:101BC00003F0F0037B617B691B097B61294A7B6918
:101BD00013441B78DBB2BB607B681A68BB68DA40D1
:101BE0007B685A60204B5B6803F4E0637B617B6930
:101BF0001B0A7B611F4A7B6913441B78DBB2BB6005
:101C00007B685A68BB68DA407B689A60164B5B68F1
:101C100003F460537B617B69DB0A7B61154A7B6956
:101C200013441B78DBB2BB607B685A68BB68DA4040
:101C30007B68DA600C4B5B6803F440437B617B6933
:101C40009B0B7B610C4A7B6913441B78DBB2BB6046
:101C50007B68DA68BB68B2FBF3F27B681A6100BF8D
:101C60001C37BD4680BC70470010024000127A004D
:101C700000093D00180000202800002080B483B037
:101C800000AF78600B46FB70FB78002B06D0094B49
:101C90005A6908497B6813434B6106E0054B5A6952
:101CA0007B68DB43034913404B6100BF0C37BD46E3
:101CB00080BC70470010024080B483B000AF7860F1
:101CC0000B46FB70FB78002B06D0094B9A6908493C
:101CD0007B6813438B6106E0054B9A697B68DB43A5
:101CE000034913408B6100BF0C37BD4680BC704771
:101CF0000010024080B483B000AF78600B46FB70E8
:101D0000FB78002B06D0094BDA6908497B6813433E
:101D1000CB6106E0054BDA697B68DB43034913407E
:101D2000CB6100BF0C37BD4680BC7047001002403D
:101D300080B483B000AF78600B46FB70FB78002B5B
:101D400006D0094BDA6808497B681343CB6006E08C
:101D5000054BDA687B68DB4303491340CB6000BF67
:101D60000C37BD4680BC70470010024080B483B081
:101D700000AF78600B46FB70FB78002B06D0094B58
:101D80001A6908497B6813430B6106E0054B1A6921
:101D90007B68DB43034913400B6100BF0C37BD4632
:101DA00080BC70470010024080B586B000AFF8607C
:101DB000B9603B601346FB8007F114031846FEF739
:101DC000E2FF3B68DBB2FB75FB88BB823B6ADBB2A0
:101DD000BB7507F114031946B868FEF718FF00BF7A
:101DE0001837BD4680BD80B588B002AFF860B960D5
:101DF0007A603B60B968F868FEF71EFB7861B968E5
:101E0000F868FEF76BFB03467B827A8A3B68009397
:101E10007B687969F868FFF7C7FF00BF1837BD46D0
:101E200080BD80B584B000AF78603960396878686B
:101E3000FEF702FBF86039687868FEF74FFB03464F
:101E40007B817A89FB681A6100BF1037BD4680BD6F
:101E500080B584B000AF7860396039687868FEF783
:101E6000EBFAF86039687868FEF738FB03467B8147
:101E70007B891B041A46FB681A6100BF1037BD46F8
:101E800080BD80B584B000AFF860B9601346FB71C7
:101E9000FB79002B04D0B968F868FFF7C2FF03E0B4
:101EA000B968F868FFF7D4FF00BF1037BD4680BDA2
:101EB00080B584B000AF7860396039687868FEF723
:101EC000BBFAF86039687868FEF708FB03467B8147
:101ED000FB689A687B891340002B14BF0123002301
:101EE000DBB218461037BD4680BD000080B586B015
:101EF00000AFF860084611461A460346FB720B46CF
:101F00003B811346FB8007F114031846FEF73BFFA5
:101F1000FB7AFB7507F1140319461A48FEF777FEA2
:101F200007F1140319461848FEF771FE07F1140370
:101F300019461648FEF76BFE07F1140319461448BC
:101F4000FEF765FE07F1140319461248FEF75FFE1F
:101F5000FB7AFB754FF6FF73BB823B89BB8207F1AF
:101F6000140319460C48FEF752FEFB88BB8207F1AA
:101F7000140319460948FEF74AFE00BF1837BD464C
:101F800080BD00BF00100140001401400018014056
:101F9000001C01400020014000080140000C0140ED
:101FA00080B582B000AF78604FF6FF7349F6FF72DC
:101FB00028217868FFF79AFF00BF0837BD4680BD2B
:101FC00080B582B000AF786001210348FEF7EEFED5
:101FD00000BF0837BD4680BD0002300080B582B02A
:101FE00000AF786039603968786800F00FF87B6876
:101FF00018460837BD4680BD80B483B000AF786016
:102000007B6818460C37BD4680BC704780B584B0ED
:1020100000AF786039607B683A681A600023FB6023
:10202000FB682D2B08DC8A4AFB688A4942F823109A
:10203000FB680133FB60F3E77B681B68864A9342C9
:1020400022D07B681B68854A93421DD07B681B6841
:10205000834A934218D07B681B68824A934213D00C
:102060007B681B68804A93420ED07B681B687F4A5E
:10207000934209D07B681B687D4A934204D07B68F9
:102080001B687C4A93425ED17B681B68724A93420C
:1020900004D17B684FF400625A6044E07B681B689F
:1020A0006E4A934204D17B684FF400525A603AE082
:1020B0007B681B686A4A934204D17B684FF4002214
:1020C0005A6030E07B681B68664A934204D17B68A3
:1020D0004FF480125A6026E07B681B68624A934284
:1020E00004D17B684FF400125A601CE07B681B68C7
:1020F0005E4A934204D17B684FF480325A6012E00A
:102100007B681B685A4A934204D17B684FF40032C3
:102110005A6008E07B681B68564A934203D17B688B
:102120004FF480225A607B685B6801211846FFF7F4
:10213000C3FD7B685B6800211846FFF7F9FD7B68EB
:1021400000229A60C3E07B681B68B3F1804F1DD00A
:102150007B681B68484A934218D07B681B68474AD3
:10216000934213D07B681B68454A93420ED07B682C
:102170001B68444A934209D07B681B68424A9342D9
:1021800004D07B681B68414A93424ED17B681B6830
:10219000B3F1804F03D17B6801225A6035E07B6840
:1021A0001B68354A934203D17B6802225A602CE0B7
:1021B0007B681B68314A934203D17B6804225A60D2
:1021C00023E07B681B682E4A934203D17B68082278
:1021D0005A601AE07B681B682A4A934203D17B68E5
:1021E00040225A6011E07B681B68274A934203D162
:1021F0007B6880225A6008E07B681B68234A934210
:1022000003D17B684FF480725A607B685B68012160
:102210001846FFF76FFD7B685B6800211846FFF7E3
:10222000A5FD7B6801229A6051E07B681B68184A13
:10223000934204D07B681B68164A934244D17B6862
:102240001B68134A934227D17B6810225A602BE007
:102250008C18002035240008002C01400034014077
:10226000004C01400050014000540140004001403A
:1022700000440140004801400004004000080040C4
:10228000000C004000180040001C004000200040EE
:1022900000100040001400407B681B68114A934204
:1022A00002D17B6820225A607B685B680121184656
:1022B000FFF720FD7B685B6800211846FFF756FD9D
:1022C0007B6802229A6002E04FF0FF3306E07B68F1
:1022D0001B6800211846FEF7ACF90023184610379A
:1022E000BD4680BD0014004080B582B000AF78606C
:1022F0007B681B6801211846FEF79BF97B689B6889
:10230000002B05D17B681B6801211846FEF7B0F948
:1023100000BF0837BD4680BD80B487B000AFF8600D
:10232000B9607A603B601C4B1B687B61FB689B68F3
:10233000012B02D0FB689B68022B01233B613B69A8
:10234000B3F5803F0ED27A693B69B2FBF3F2BB680A
:10235000B2FBF3F3B3F5803F03D33B6901333B6139
:10236000EDE700BF3B69B3F5803F02D14FF0FF338B
:102370000DE07B683A691A607A693B69B2FBF3F257
:10238000BB68B2FBF3F35A1E3B681A600023184681
:102390001C37BD4680BC70470400002080B588B063
:1023A00000AF7860396007F114031846FEF728F98A
:1023B00007F10C0307F1100239687868FFF7ACFFEA
:1023C0000346DB0FDBB2002B02D04FF0FF331CE0E3
:1023D0003B699BB2013B9BB2BB82FB689BB23B83D8
:1023E00000237B830023FB8200233B777B681B68F1
:1023F00007F1140211461846FEF786F87B681B6841
:1024000001211846FEF759F9002318462037BD462A
:1024100080BD80B582B000AF78600B467B807B6862
:102420001B687A8811461846FEF766F900BF083720
:10243000BD4680BD80B400AFFEE780B400AF00BFF2
:10244000BD4680BC704780B400AF00BFBD4680BCB5
:102450007047000080B500AF01210A48FEF767F918
:102460000346012B0CBF01230023DBB2002B06D057
:1024700001210448FEF784F9034B1B68984700BF0D
:1024800080BD00BF002C01408C18002080B500AF3B
:1024900002212648FEF74BF90346012B0CBF01230E
:1024A0000023DBB2002B06D002212048FEF768F99A
:1024B0001F4B5B68984704211C48FEF738F9034618
:1024C000012B0CBF01230023DBB2002B06D004211B
:1024D0001648FEF755F9164B9B6898470821134894
:1024E000FEF725F90346012B0CBF01230023DBB2C5
:1024F000002B06D008210D48FEF742F90C4BDB6893
:10250000984710210948FEF712F90346012B0CBF2A
:1025100001230023DBB2002B06D010210348FEF775
:102520002FF9034B1B69984700BF80BD002C014069
:102530008C18002080B500AF01214FF08040FEF7DD
:10254000F6F80346012B0CBF01230023DBB2002B5E
:1025500007D001214FF08040FEF712F92C4B1B6A87
:10256000984702214FF08040FEF7E1F80346012B27
:102570000CBF01230023DBB2002B07D002214FF058
:102580008040FEF7FDF8224B5B6A984704214FF02C
:102590008040FEF7CCF80346012B0CBF012300233B
:1025A000DBB2002B07D004214FF08040FEF7E8F8A3
:1025B000174B9B6A984708214FF08040FEF7B7F809
:1025C0000346012B0CBF01230023DBB2002B07D0F5
:1025D00008214FF08040FEF7D3F80D4BDB6A984797
:1025E00010214FF08040FEF7A2F80346012B0CBFEC
:1025F00001230023DBB2002B07D010214FF08040D5
:10260000FEF7BEF8024B1B6B984700BF80BD00BFB2
:102610008C18002080B500AF01213048FEF787F804
:102620000346012B0CBF01230023DBB2002B06D095
:1026300001212A48FEF7A4F8294BDB6B98470221B9
:102640002648FEF774F80346012B0CBF0123002334
:10265000DBB2002B06D002212048FEF791F8204B78
:102660001B6C984704211D48FEF761F80346012BB7
:102670000CBF01230023DBB2002B06D00421174836
:10268000FEF77EF8164B5B6C984708211348FEF75F
:102690004EF80346012B0CBF01230023DBB2002BB5
:1026A00006D008210D48FEF76BF80D4B9B6C984740
:1026B00010210A48FEF73BF80346012B0CBF01230B
:1026C0000023DBB2002B06D010210448FEF758F897
:1026D000034BDB6C984700BF80BD00BF0004004087
:1026E0008C18002080B500AF01213048FEF71FF89C
:1026F0000346012B0CBF01230023DBB2002B06D0C5
:1027000001212A48FEF73CF8294B9B6D984702218E
:102710002648FEF70CF80346012B0CBF01230023CB
:10272000DBB2002B06D002212048FEF729F8204B0F
:10273000DB6D984704211D48FDF7F9FF0346012B87
:102740000CBF01230023DBB2002B06D00421174865
:10275000FEF716F8164B1B6E984708211348FDF735
:10276000E6FF0346012B0CBF01230023DBB2002B45
:1027700006D008210D48FEF703F80D4B5B6E984715
:1027800010210A48FDF7D3FF0346012B0CBF01239C
:102790000023DBB2002B06D010210448FDF7F0FF28
:1027A000034B9B6E984700BF80BD00BF00080040F0
:1027B0008C18002080B500AF01213148FDF7B7FF2C
:1027C0000346012B0CBF01230023DBB2002B06D0F4
:1027D00001212B48FDF7D4FF2A4B5B6F984702215C
:1027E0002748FDF7A4FF0346012B0CBF012300235C
:1027F000DBB2002B06D002212148FDF7C1FF214B9F
:102800009B6F984704211E48FDF791FF0346012B5B
:102810000CBF01230023DBB2002B06D00421184893
:10282000FDF7AEFF174BDB6F984708211448FDF703
:102830007EFF0346012B0CBF01230023DBB2002BDC
:1028400007D008210E48FDF79BFF0E4BD3F88030D0
:10285000984710210A48FDF76AFF0346012B0CBF79
:1028600001230023DBB2002B07D010210448FDF721
:1028700087FF044BD3F88430984700BF80BD00BF6A
:10288000000C00408C18002080B500AF01210A48E0
:10289000FDF74DFF0346012B0CBF01230023DBB2E4
:1028A000002B07D001210448FDF76AFF034BD3F842
:1028B0009030984700BF80BD001000408C18002069
:1028C00080B500AF01210A48FDF731FF0346012B17
:1028D0000CBF01230023DBB2002B07D001210448E9
:1028E000FDF74EFF034BD3F89430984700BF80BDEF
:1028F000001400408C18002080B400AF00BFBD461B
:1029000080BC704780B400AF00BFBD4680BC70473C
:1029100080B500AF01210A48FDF709FF0346012BEE
:102920000CBF01230023DBB2002B07D00121044898
:10293000FDF726FF034BD3F89830984700BF80BDC2
:10294000003401408C18002080B500AF02212848D7
:10295000FDF7EDFE0346012B0CBF01230023DBB284
:10296000002B07D002212248FDF70AFF214BD3F8A4
:102970009C30984704211E48FDF7D9FE0346012BE1
:102980000CBF01230023DBB2002B07D00421184821
:10299000FDF7F6FE174BD3F8A030984708211448EE
:1029A000FDF7C5FE0346012B0CBF01230023DBB25C
:1029B000002B07D008210E48FDF7E2FE0D4BD3F89F
:1029C000A430984710210A48FDF7B1FE0346012BB9
:1029D0000CBF01230023DBB2002B07D010210448D9
:1029E000FDF7CEFE034BD3F8A830984700BF80BD5B
:1029F000003401408C18002080B483B000AF7860B0
:102A0000034A7B68536100BF0C37BD4680BC7047EA
:102A10000004014080B483B000AF78607B68184642
:102A20000C37BD4680BC704780B582B000AF78607F
:102A3000786800F05FF87B6818460837BD4680BDAF
:102A400090B587B002AFF860B9607A607B80FB68B0
:102A5000BA681A607B8818460BF07AFC03461A465F
:102A6000FB685A60FB685A68FB68DA60FB68002202
:102A70001A82FB681A8AFB685A82FB687A889A82F3
:102A80003B8C18460BF064FC03461A46FB689A60C0
:102A9000FB689A68FB689A61FB6800229A83FB686E
:102AA0009A8BFB68DA83FB683A8C1A84FB680022F5
:102AB0009A62FB689A6AFB681A63FB681A6BFB6888
:102AC000DA62FB68DA6AFB685A62FB681868FB68BE
:102AD00003F11801FB6803F10C02FB6803F1240405
:102AE0007B680093234600F047FF034618461437DF
:102AF000BD4690BD80B582B000AF78607B681B6832
:102B0000184601F03DF87B685B68002B04D07B68B9
:102B10005B6818460BF0E8F97B689B68002B04D0D3
:102B20007B689B6818460BF0DFF900BF0837BD468D
:102B300080BD0EB480B5C5B000AF3B1D186007F571
:102B4000907207F108031A6007F1080307F10C00FF
:102B50001B68D7F81C214FF4807105F075FD3B1DF3
:102B60001B681B6807F10C021146184601F066F855
:102B70000346C7F80C31D7F80C31184607F58A77A9
:102B8000BD46BDE8804003B0704780B582B000AF5D
:102B9000786039607B681B683968184601F04EF828
:102BA000034618460837BD4680BD80B483B000AFE9
:102BB00078607B68DB6C9BB218460C37BD4680BCE6
:102BC000704780B485B000AF78600B46FB7000237F
:102BD000FB737B681A68FB781340002B02D001233B
:102BE000FB7301E00023FB73FB7B18461437BD46E3
:102BF00080BC704780B58CB000AF7860396000232E
:102C0000FB620023BB6200237B6200233B62002344
:102C1000FB617B68FB617B681B8A9BB2FB62FA6A83
:102C20004CF6FF731340FB623B68DB881A46FB6A75
:102C30001343FB62FB6A9AB27B681A827B689B89AA
:102C40009BB2FB62FA6A4EF6F3131340FB623B68D9
:102C50009A883B681B8913439AB23B685B8913438C
:102C60009BB21A46FB6A1343FB62FB6A9AB27B680B
:102C70009A817B689B8A9BB2FB62FA6A4FF6FF439C
:102C80001340FB623B689B891A46FB6A1343FB6255
:102C9000FB6A9AB27B689A8207F108031846FEF72E
:102CA0003DFFFB692E4A934202D17B69BB6201E082
:102CB0003B69BB627B689B899BB21BB2002B0CDA21
:102CC000BA6A13469B0013449A001A443B681B6877
:102CD0005B00B2FBF3F37B620BE0BA6A13469B0026
:102CE00013449A001A443B681B689B00B2FBF3F341
:102CF0007B627B6A1B4AA2FB03235B091B01FB620D
:102D0000FB6A1B09642202FB03F37A6AD31A3B6253
:102D10007B689B899BB21BB2002B0CDA3B6ADB0001
:102D20003233104AA2FB03235B0903F00703FA6A5C
:102D30001343FB620BE03B6A1B013233094AA2FBDF
:102D400003235B0903F00F03FA6A1343FB62FB6A78
:102D50009AB27B681A8100BF3037BD4680BD00BF84
:102D6000003801401F85EB5180B483B000AF78601C
:102D70007B684FF416521A607B6800229A807B6849
:102D80000022DA807B6800221A817B680C225A813B
:102D90007B6800229A8100BF0C37BD4680BC70471B
:102DA00080B483B000AF78600B46FB70FB78002BDB
:102DB00008D07B689B899BB243F400539AB27B682E
:102DC0009A8107E07B689B899BB223F400539AB2F7
:102DD0007B689A8100BF0C37BD4680BC704780B4C9
:102DE00087B000AF78600B467B8013467B70002372
:102DF0003B610023FB600023BB6000237B617B6899
:102E00007B617B88DBB25B09DBB23B617B8803F0D3
:102E10001F03FB600122FB6802FA03F3BB603B69FE
:102E2000012B03D17B690C337B6109E03B69022BE9
:102E300003D17B6910337B6102E07B6914337B61D2
:102E40007B78002B06D07B6919687B69BA680A43D6
:102E50001A6006E07B691968BB68DA437B690A403F
:102E60001A6000BF1C37BD4680BC704780B483B079
:102E700000AF78600B467B807B88C3F308039AB26F
:102E80007B689A8000BF0C37BD4680BC704780B419
:102E900083B000AF78607B689B889BB2C3F3080364
:102EA0009BB218460C37BD4680BC704780B485B0D5
:102EB00000AF78600B467B800023FB737B681B8828
:102EC0009AB27B8813409BB2002B02D00123FB7384
:102ED00001E00023FB73FB7B18461437BD4680BC22
:102EE000704780B485B000AF78600B467B800023CC
:102EF000FB810023BB817B881B0AFB81FB890122AC
:102F000002FA03F3BB81BB89DB439AB27B681A8068
:102F100000BF1437BD4680BC704780B500AF0820A5
:102F2000FFF76AFD00BF80BD80B500AF012000F053
:102F300029FC0346012B32D1042000F023FC034678
:102F4000012B09D1042000F045FC164B1B78DBB2A5
:102F50000133DAB2134B1A70022000F013FC03465F
:102F6000012B09D1022000F035FC0F4B1B78DBB29E
:102F70000133DAB20C4B1A70082000F003FC034650
:102F8000012B09D1082000F025FC084B1B78DBB28F
:102F90000133DAB2054B1A70012000F01BFC00BFB0
:102FA00080BD00BF441900204519002046190020AB
:102FB00080B500AF1D4800F0E5FB0346012B32D180
:102FC0001B4800F0DFFB0346012B09D1184800F035
:102FD00001FC184B1B78DBB20133DAB2154B1A70C7
:102FE000154800F0CFFB0346012B09D1124800F031
:102FF000F1FB124B1B78DBB20133DAB20F4B1A70C4
:103000000F4800F0BFFB0346012B09D10C4800F02C
:10301000E1FB0C4B1B78DBB20133DAB2094B1A70BF
:10302000024800F0D7FB00BF80BD00BF00010010C8
:103030000004001047190020000200104819002069
:10304000000800104919002080B500AF4FF0102093
:1030500000F098FB0346012B33D1384800F092FB77
:103060000346012B09D1354800F0B4FB344B1B78E3
:10307000DBB20133DAB2324B1A70324800F082FB15
:103080000346012B09D12F4800F0A4FB2E4B1B78DF
:10309000DBB20133DAB22C4B1A702C4800F072FB11
:1030A0000346012B09D1294800F094FB284B1B78DB
:1030B000DBB20133DAB2264B1A704FF0102000F069
:1030C00089FB244800F05EFB0346012B33D12248E4
:1030D00000F058FB0346012B09D11F4800F07AFB92
:1030E0001E4B1B78DBB20133DAB21C4B1A701C4842
:1030F00000F048FB0346012B09D1194800F06AFB98
:10310000184B1B78DBB20133DAB2164B1A70164833
:1031100000F038FB0346012B09D1134800F05AFB9D
:10312000124B1B78DBB20133DAB2104B1A704FF03E
:10313000102000F04FFB00BF80BD00BF004000101A
:103140004A190020002000104B19002000800010B8
:103150004C19002000000110000004104D1900203F
:10316000000002104E190020000008104F19002026
:1031700080B582B000AF786039603968786800F057
:103180000FF87B6818460837BD4680BD80B483B011
:1031900000AF78607B6818460C37BD4680BC70472E
:1031A00080B483B000AF786039607B683A681A6099
:1031B00000BF0C37BD4680BC704780B590B000AFF3
:1031C000F860B9607A603B60FB681B6800211846B4
:1031D00000F0BCFAFB681B68184600F093F907F191
:1031E0001403184600F088FA0023FB630023BB6336
:1031F0004FF400633B634FF40073FB628023BB62B8
:1032000000237B62BB6C7B631023FB61BB687B612B
:103210007B68BB613B683B62FB681B6807F114027B
:103220001146184600F02AFA00BF4037BD4680BD5F
:1032300080B582B000AF78600B46FB707B681B687E
:10324000FA781146184600F081FA00BF0837BD46EB
:1032500080BD80B584B000AF7860084611461A463C
:103260000346FB700B46BB7013463B803B88BB811B
:10327000BB78FB73FB78BB7307F10C0319467868C6
:10328000FDF7C5FC00BF1037BD4680BD80B485B0DA
:1032900000AF78600A4B1B68002B02D1084B094A2B
:1032A0001A60074B1B68FB60054B1A687B68134468
:1032B000034A1360FB6818461437BD4680BC70474C
:1032C00050190020881A002080B483B000AF7860C5
:1032D0004FF0FF3318460C37BD4680BC704780B4B2
:1032E00083B000AF786039603B684FF400525A6099
:1032F000002318460C37BD4680BC704780B483B0AD
:1033000000AF7860012318460C37BD4680BC70477B
:1033100080B485B000AFF860B9607A6000231846C9
:103320001437BD4680BC704780B485B000AFF860EC
:10333000B9607A607B6818461437BD4680BC704718
:1033400080B485B000AFF860B9607A607B681846D9
:103350001437BD4680BC704780B400AFFEE7000064
:1033600080B400AF044B1B680133034A136000BFF5
:10337000BD4680BC704700BF5C1A002080B400AF1F
:10338000024B1B680133014A1360F9E75C1A002005
:1033900080B400AF024B1B680133014A1360F9E7A8
:1033A0005C1A002080B400AF024B1B680133014A55
:1033B0001360F9E75C1A002080B400AF024B1B6871
:1033C0000133014A1360F9E75C1A002080B400AFB2
:1033D00000BFBD4680BC704780B400AF00BFBD4693
:1033E00080BC704780B400AF00BFBD4680BC704752
:1033F00098B500AF144BD3E900014FF47A724FF047
:10340000000302F099FE1C4613461946224640F27C
:10341000E7334FF00004A24208BF994208D10B4B9A
:10342000D3E900124B1C42F10004084AC2E90034FF
:10343000054BD3E900124B1C42F10004024AC2E9D9
:10344000003400BF98BD00BF880A0020900A002009
:1034500080B483B000AF78607B6818460C37BD46F7
:1034600080BC704780B483B000AF78607B6818463A
:103470000C37BD4680BC704780B582B000AF786025
:103480000323102246217868FEF7ADFC03231022A7
:1034900045217868FEF7A7FC0323102244217868B1
:1034A000FEF7A1FC0323102243217868FEF79BFC62
:1034B000002246217868FEF7E4FC00224521786866
:1034C000FEF7DFFC002244217868FEF7DAFC0022D8
:1034D00043217868FEF7D5FC032348222821786829
:1034E000FEF781FC0323482227217868FEF77BFC46
:1034F0000323482226217868FEF775FC00BF0837B1
:10350000BD4680BD80B483B000AF78607B681A6828
:103510004FF6FE7313407A6813607B6800221A60CE
:103520007B6800225A607B6800229A607B680022D8
:10353000DA607B68434A934206D1434B5B68424A58
:1035400043F00F03536077E07B68404A934206D113
:103550003D4B5B683C4A43F0F00353606CE07B6892
:103560003B4A934206D1384B5B68374A43F4706359
:10357000536061E07B68374A934206D1324B5B6807
:10358000314A43F47043536056E07B68324A9342B9
:1035900006D12D4B5B682C4A43F4702353604BE0FB
:1035A0007B682E4A934206D1274B5B68264A43F438
:1035B0007003536040E07B68294A934206D1224B56
:1035C0005B68214A43F07063536035E07B68254AAD
:1035D000934206D1244B5B68234A43F00F035360A8
:1035E0002AE07B68214A934206D11F4B5B681E4A42
:1035F00043F0F00353601FE07B681D4A934206D1FD
:10360000194B5B68184A43F47063536014E07B689D
:10361000184A934206D1144B5B68134A43F4704333
:10362000536009E07B68144A934205D10E4B5B68F6
:103630000D4A43F47023536000BF0C37BD4680BC75
:10364000704700BF08000240000002401C0002401A
:103650003000024044000240580002406C0002402A
:103660008000024008040240000402401C040240A2
:1036700030040240440402405804024080B485B043
:1036800000AF786039600023FB607B681B68FB60DB
:10369000FB6823F4FF4323F07003FB603B689A68E8
:1036A0003B681B6A1A433B681B691A433B685B69AA
:1036B0001A433B689B691A433B68DB691A433B68C2
:1036C0005B6A1A433B689B6A1343FA681343FB60C7
:1036D0007B68FA681A603B68DA687B685A603B6806
:1036E0001A687B689A603B685A687B68DA6000BF3A
:1036F0001437BD4680BC704780B483B000AF78609B
:103700007B6800221A607B6800225A607B68002276
:103710009A607B680022DA607B6800221A617B680D
:1037200000225A617B6800229A617B680022DA617C
:103730007B6800221A627B6800225A627B68002242
:103740009A6200BF0C37BD4680BC704780B483B01E
:1037500000AF78600B46FB70FB78002B06D07B68CF
:103760001B6843F001027B681A6006E07B681A68F8
:103770004FF6FE7313407A68136000BF0C37BD46E6
:1037800080BC704780B485B000AF78600023FB73C5
:103790000023BB607B6803F08053002B03D00B4BEE
:1037A0001B68BB6002E00A4B1B68BB60BA687B68A1
:1037B0001340002B02D00123FB7301E00023FB73B5
:1037C000FB7B18461437BD4680BC7047000402409E
:1037D0000000024080B483B000AF78607B6803F0E3
:1037E0008053002B03D0064A7B68536002E0054AF1
:1037F0007B68536000BF0C37BD4680BC704700BF7C
:10380000000402400000024080B483B000AF786042
:10381000054A7B6843F0BF6343F40033D36000BFC5
:103820000C37BD4680BC704700ED00E080B487B027
:1038300000AF786000237B6100233B610F23FB60B6
:103840007B68DB78002B3AD0274BDB68DB431B0A15
:1038500003F007037B617B69C3F104033B61FA68F2
:103860007B6922FA03F3FB607B685B781A463B694D
:1038700002FA03F37B617B689B781A46FB6813406E
:103880007A6913437B617B691B017B61174A7B6803
:103890001B787969C9B213440A4683F800237B6810
:1038A0001B7803F01F0311497A6812785209D2B2CB
:1038B0001046012202FA03F341F820300FE07B6842
:1038C0001B7803F01F0309497A6812785209D2B2B3
:1038D000104601229A4000F1200341F8232000BF46
:1038E0001C37BD4680BC704700ED00E000E100E001
:1038F00080B483B000AF786039603B6823F06043E8
:1039000023F07F0304497A6813438B6000BF0C37B0
:10391000BD4680BC704700BF00ED00E080B483B0BE
:1039200000AF78607B68042B16D801A252F823F010
:1039300045390008493900084D3900085139000857
:1039400055390008074B08E0074B06E0074B04E039
:10395000074B02E0074B00E0002318460C37BD463A
:1039600080BC7047003801400044004000480040DF
:10397000004C00400050004080B58AB000AFF860B5
:10398000B9607A603B60F868FFF7C8FF78627B6ACD
:10399000002B02D14FF0FF33DEE07149FB68BA68BB
:1039A00041F823206F49FB687A6841F823206E496B
:1039B000FB683A6841F82320FB68042B00F29B80E7
:1039C00001A252F823F000BFDD390008153A0008C3
:1039D000493A0008893A0008C13A00084FF40073D8
:1039E000182203216148FFF734FC4FF4806348221A
:1039F00002215E48FFF72DFC01214FF48040FEF7C5
:103A00005BF900214FF48040FEF792F9252387F8F7
:103A1000203070E00423182203215448FFF719FCDA
:103A20000823042202215148FFF713FC01214FF41F
:103A30000030FEF75FF900214FF40030FEF796F9F1
:103A4000262387F8203056E04FF4806318220321A4
:103A50004748FFF7FEFB4FF400630422022144486D
:103A6000FFF7F7FB01214348FDF7A0F901214FF4CF
:103A70008020FEF73FF900214FF48020FEF776F911
:103A8000272387F8203036E04FF480631822032183
:103A90003948FFF7DEFB4FF4006348220221364825
:103AA000FFF7D7FB01214FF40020FEF723F9002197
:103AB0004FF40020FEF75AF9342387F820301AE03B
:103AC0004FF48053182203212B48FFF7C2FB042335
:103AD000482202212948FFF7BCFB01214FF4801046
:103AE000FEF708F900214FF48010FEF73FF9352367
:103AF00087F8203000BF022387F82130002387F8A1
:103B00002230012387F8233007F120031846FFF7FE
:103B10008DFE07F110031846FFF726F93B6B3B615A
:103B200007F110031946786AFFF764F8012240F2A2
:103B30002771786AFFF753F9012240F22551786A1C
:103B4000FFF74DF901226021786AFFF748F901215A
:103B5000786AFFF725F9002318462837BD4680BD4F
:103B600068190020541900207C1900200008014029
:103B7000000C01403000140000100140001401400E
:103B800080B584B000AF78607868FFF7C7FEF86052
:103B9000FB68002B02D14FF0FF334BE0FB680022A3
:103BA0009A81FB6800221A82FB6800229A82FB68D5
:103BB00000221A817B68042B34D801A252F823F02A
:103BC000D53B0008E53B0008F53B0008053C000834
:103BD000153C000800214FF48040FEF76DF82523C6
:103BE0003B721FE000214FF40030FEF783F82623DC
:103BF0003B7217E000214FF48020FEF77BF827236B
:103C00003B720FE000214FF40020FEF773F83423DD
:103C10003B7207E000214FF48010FEF76BF835236C
:103C20003B7200BF0023FB7207F108031846FFF741
:103C3000FDFD002318461037BD4680BD80B588B015
:103C400000AF786039607B68002B0ED07B68012B59
:103C50000BD07B68022B08D07B68032B05D07B68D8
:103C6000042B02D04FF0FF3346E0786800F04AF8AA
:103C70000346002B02D14FF0FF333DE07868FFF799
:103C80004DFE78611E4A7B6852F823303B61002369
:103C9000BB613B691B68FB6027E03B699B88013384
:103CA000FB833B691B89FA8B9A4201D30023FB8378
:103CB0003B69DB88FA8B9A421CD03B685A1C3A60FD
:103CC0003A6992881146FA680A441B78137072B6F2
:103CD0003B69FA8B9A8062B6012240F227717869BB
:103CE000FFF77DF8BB690133BB613B681B78002B94
:103CF000D3D100E000BFBB6918462037BD4680BD68
:103D00005419002080B485B000AF7860164A7B68F3
:103D100052F82330FB60FB689B887B81FB68DB8863
:103D20003B817A893B899A4204D1FB681B89013B1C
:103D30009BB214E03A897B899A420AD2FB681A89BD
:103D40003B8913449AB27B89D31A9BB2013B9BB245
:103D500005E03A897B89D31A9BB2013B9BB2184696
:103D60001437BD4680BC70475419002080B58AB016
:103D700000AF78607868FFF7D1FD38620221386AB9
:103D8000FFF794F80346012B16D1386AFFF77FF846
:103D90000346FB774FF4B071386AFFF7A2F8684A20
:103DA0007B6852F82330BB61BB69002B04D0BB6930
:103DB0001B685A1CBB691A600121386AFFF776F844
:103DC0000346012B15D1386AFFF761F80346FB77EC
:103DD0000121386AFFF785F8594A7B6852F8233089
:103DE000BB61BB69002B04D0BB695B685A1CBB6913
:103DF0005A600421386AFFF759F80346012B15D1A0
:103E0000386AFFF744F80346FB770421386AFFF766
:103E100068F84B4A7B6852F82330BB61BB69002BC2
:103E200004D0BB699B685A1CBB699A600821386A38
:103E3000FFF73CF80346012B15D1386AFFF727F846
:103E40000346FB770821386AFFF74BF83C4A7B684A
:103E500052F82330BB61BB69002B04D0BB69DB681F
:103E60005A1CBB69DA602021386AFFF71FF8034645
:103E7000012B26D1386AFFF70AF80346FB77314A4F
:103E80007B6852F823307B617B691B683B617B69EF
:103E90009B880133FB847B691B89FA8C9A4201D38E
:103EA0000023FB847B69DB88FA8C9A4209D07B690A
:103EB0009B881A463B691344FA7F1A707B69FA8C17
:103EC0009A808021386AFEF7F1FF0346012B33D137
:103ED0001D4A7B6852F82330FB60FB68DA88FB6878
:103EE0009B889A420AD1002240F22771386AFEF775
:103EF00076FF8021386AFEF7F4FF1DE0FB681B683F
:103F00003B61FB68DB881A463B6913441B787B8165
:103F10007B891946386AFEF7A9FFFB68DB88013305
:103F20009AB2FB68DA80FB68DA88FB681B899A42E0
:103F300002D3FB680022DA802837BD4680BD00BF6F
:103F40007C190020681900205419002080B500AFAA
:103F50000020FFF70BFF00BF80BD80B500AF012040
:103F6000FFF704FF00BF80BD80B500AF0220FFF760
:103F7000FDFE00BF80BD80B500AF0320FFF7F6FE59
:103F800000BF80BD80B500AF0420FFF7EFFE00BF8B
:103F900080BD000030B5214A21F00043934287B034
:103FA0001BDD1F4A934205DD02460B4601F066F910
:103FB00007B030BD02AA00F037F800F00300012876
:103FC00013D002281FD0DDE90423A8B1DDE90201E6
:103FD00000F04AFA01F10041EAE700240022002340
:103FE000009400F08DFF07B030BDDDE90423DDE96A
:103FF000020100F039FADBE70124DDE90201009457
:1040000000F07EFFD4E70124DDE90423DDE90201AD
:10401000009400F075FF01F10041C9E7FB21E93F81
:10402000FFFFEF7F000000002DE9F04FC84C21F0AA
:104030000045A5428FB040F38A801446C54A0E461B
:10404000954226DCB8A3D3E90023002940F38A80F7
:1040500001F014F9C04B06469D420F4600F0468120
:10406000B3A3D3E9002301F009F902460B46304619
:10407000C4E90023394601F001F9ADA3D3E90023D7
:1040800001F0FCF80127C4E9020138460FB0BDE891
:10409000F08FB24A954240F38480B14A954200F3D2
:1040A0001B812F15A7F21647A5EB07518B468246B9
:1040B00001F04CFD01F030FA8046894642464B46FD
:1040C00050465946CDE9088901F0D8F80022A54BA1
:1040D00001F08CFA8B46824601F038FD01F01CFAA3
:1040E0008046894642464B4650465946CDE90A89A4
:1040F00001F0C4F800229B4B01F078FA0022002363
:10410000CDE90C0101F0DAFC002800F05F8100230A
:1041100040464946002201F0D1FC002814BF01238B
:104120000223022090493A46CDE90001214608A821
:1041300000F0BEFA002E074610DA6268E36802F16A
:10414000004203F1004347426260E36006E000245E
:1041500000250027C2E90245C2E9000138460FB038
:10416000BDE8F08F01F08CF87B4B06469D420F4670
:1041700000F00E816EA3D3E9002301F081F802461E
:104180000B4630463946C4E9002301F077F868A3AE
:10419000D3E9002301F074F84FF0FF37C4E90201BE
:1041A000DCE700F063FF64A3D3E90023804689467F
:1041B00001F01CFA00226D4B01F062F801F0C6FC20
:1041C000074601F0A9F958A3D3E9002382468B469C
:1041D000CDE904AB01F00AFA02460B4640464946D7
:1041E00001F04CF852A3D3E90023CDE90201504677
:1041F000594601F0FBF91F2F8046894602460B46BF
:10420000DDE9020140F3B48001F038F883468A46C4
:104210002D15CAF30A53EB1A102B40F3B48048A3B0
:10422000D3E90023DDE9040101F0E0F98046894685
:1042300002460B46DDE9020101F020F882468B467A
:1042400002460B46DDE9020101F018F842464B46F2
:1042500001F014F83CA3D3E9002380468946DDE948
:10426000040101F0C3F942464B4601F007F80B4642
:1042700002468046894650465946CDE906AB00F0D5
:10428000FDFFC1F30A53ED1A312D83468A4600F330
:104290009F8002460B46DDE90601C4E90023CDE913
:1042A0000201DDE902015A46534600F0E7FF4246AB
:1042B0004B4600F0E3FF02460B46002EC4E9022302
:1042C000BFF64CAF0AF1004301F10041C4E900B36D
:1042D000C4E902017F4241E702460B4600F0CEFFEF
:1042E0000027C4E90201C4E9000137E714A3D3E9B8
:1042F000002300F0C3FF14A3D3E900230F460646B2
:1043000000F0BCFF02460B4630463946C4E90023A4
:1043100000F0B4FF0CA3D3E9002300F0AFFF0127A6
:10432000C4E902011AE700BF00004054FB21F93F35
:104330003163621A61B4D03D83C8C96D305FE43F18
:104340000000601A61B4D03D7370032E8A19A33B3C
:10435000FB21E93F7BD90240FB21F93FFB21394199
:10436000FFFFEF7F00007041705C01080000E03F3C
:1043700000F084FF3A4B7A1E53F822308346AB425A
:104380008A463FF445AF5A465346C4E9002388E7BE
:104390002BA3D3E9002300F073FF2BA3D3E9002361
:1043A0000F46064600F06CFF02460B463046394683
:1043B000C4E9002300F062FF23A3D3E9002300F047
:1043C0005FFF4FF0FF37C4E90201C7E60323A8E609
:1043D0001FA3D3E90023DDE9040101F007F98046BA
:1043E000894602460B46DDE9060100F047FF82469A
:1043F0008B4602460B46DDE90601CDE902AB00F033
:104400003DFF42464B4600F039FF13A3D3E900239A
:1044100080468946DDE9040101F0E8F842464B4652
:1044200000F02CFF02460B4680468946504659460E
:1044300000F024FF83468A46A5E700BFAFF3008063
:104440000000601A61B4D03D7370032E8A19A33B3B
:104450000000002E8A19A33BC14920259A837B398D
:10446000F05B0108000000002DE9F04F21F000464C
:10447000B6F1795F85B00C4692469B4605466BDAED
:1044800001F064FB002800F0E1802A46234628461C
:10449000214601F0ABF874A3D3E900238046894696
:1044A00001F0A4F872A3D3E9002300F0E9FE42462C
:1044B0004B4601F09BF870A3D3E9002300F0DEFE29
:1044C00042464B4601F092F86DA3D3E9002300F079
:1044D000D7FE42464B4601F089F86BA3D3E900238F
:1044E00000F0CCFE42464B4601F080F868A3D3E9C9
:1044F000002300F0C5FE42464B4601F077F8CDE9B7
:1045000000010022644B4046494601F06FF8DDE9A6
:10451000002306460F464046494601F067F85246DA
:10452000804689465B462846214601F05FF80246F0
:104530000B464046494600F0A1FE02460B46304677
:10454000394600F09BFE02460B460020534900F01E
:1045500095FE05B0BDE8F08F02460B4601F046F827
:1045600041A3D3E900238046894601F03FF840A3E8
:10457000D3E9002300F084FE42464B4601F036F8B2
:104580003DA3D3E9002300F079FE42464B4601F0FB
:104590002DF83BA3D3E9002300F072FE42464B46C0
:1045A00001F024F838A3D3E9002300F067FE424667
:1045B0004B4601F01BF836A3D3E9002300F060FE60
:1045C0004B46424601F012F8354BCDE900019E42C0
:1045D00097DD344B00229E423DDCA6F500130020FF
:1045E0002E4916461F4600F049FECDE90201002281
:1045F000294B4046494600F0F9FF32463B4600F061
:104600003DFEDDE9002306460F464046494600F0E0
:10461000EDFF5246804689465B462846214600F01B
:10462000E5FF02460B464046494600F027FE02469B
:104630000B463046394600F021FE02460B46DDE9C6
:10464000020100F01BFE05B0BDE8F08F0020134909
:1046500005B0BDE8F08F144B0026CDE90223134FBF
:10466000C5E700BFAFF30080D43888BEE9FAA8BD23
:10467000C4B1B4BD9EEE213EAD529C804F7E923EB1
:104680009015CB19A001FA3E7751C1166CC1563F67
:104690004C5555555555A53F0000E03F0000F03FF3
:1046A0003233D33F0000E93F0000E73F0000D23F34
:1046B0002DE9F04F1F46ADF5197DBF4C0793D31E72
:1046C00084FB0354DB17C3EBA40323EAE375BB4C61
:1046D000A29E6B1C54F82660A3EB83037C1E02EBA6
:1046E000C3030593331909950496019407460B916A
:1046F000A5EB04081DD44344002400255E1C0DF1E5
:104700008009DDF88CA209E05AF8280000F004FFC7
:1047100008F10108B045E9E802010AD0B8F1000F3C
:10472000F2DA2046294608F10108B045E9E802011D
:10473000F4D1049B002BC0F2B783A7F10802114605
:10474000079B0392DB0020AA02EB0309029301EB13
:104750000308049B72AA02EBC30B0DF5E07A019BE0
:10476000002BC0F295814D4600260027039C75E979
:104770000223F4E9020100F039FF02460B463046FD
:10478000394600F07DFD444506460F46EFD1EAE884
:104790000267DA4509F10809E1D1DDE90210049B5D
:1047A00001449B468A469B000BA9A3F10802CB1843
:1047B00008930CAB13440A9398AB03EBCB03BBF108
:1047C000000F53E9284529DD70AB0DF1300903EBEB
:1047D000CB0800227A4B2046294600F007FF01F063
:1047E000B5F900F099FE0022764B06460F4600F020
:1047F000FDFE02460B462046294600F03FFD01F033
:10480000A5F978E9022349F8040B3946304600F04F
:1048100037FD70AB984504460D46DAD1DDF81490AB
:10482000204629464A4600F0ABFC00224FF07F5359
:1048300004460D4600F0DAFE00F01EFC0022624B3A
:1048400000F0D4FE02460B462046294600F016FD35
:104850000D46044601F07AF9804600F05DFE0B46F5
:1048600002462946204600F009FD4B46002B06462D
:104870000F4640F3E1800BF1FF310CAA52F82150B2
:10488000C9F1180345FA03F202FA03F3EB1A0CA874
:10489000C9F1170540F82130904443FA05F5002D81
:1048A0002CDDBBF1000F08F1010840F399820C9C4C
:1048B000002C40F0A780BBF1010F0AD001220CA907
:1048C00051F8044F531C002C40F09E809B451A4623
:1048D000F6D1059B002B0EDD012B00F0B581022BDC
:1048E00009D10BF1FF320CAB53F822300CA9C3F302
:1048F000150341F82230022D00F0AF800022002382
:104900003046394601F0DAF8002800F06B82049B4B
:104910000BF1FF394B4510DC00220BF18043013BCA
:104920000CA9089801EB830353F80419834242EA67
:104930000102F9D1002A40F0B580049B0CAA013B8A
:1049400052F82330002B40F0A18001230A9A52F83C
:10495000041901330029FAD05B440BF10109994590
:10496000069349DC099A079909EB020801EB0B054C
:1049700008F1804802EB030BA39B08F1FF3803EB1F
:10498000880870AB03EBC909A39B20A903EB8B0339
:1049900001EBC505029358F8040F00F0BDFD019B23
:1049A00005F1080B002BC5E9000128DB039C00265C
:1049B0000027083D0CE000BFABAAAA2AB85D010899
:1049C0000000703E000070410000204075E80201C8
:1049D000F4E9022300F00AFE02460B46304639464F
:1049E00000F04EFC544506460F46EFD1029BE9E825
:1049F000026798455D46CED1DDF818B0DCE60026AA
:104A00000027F3E701230022C4F180740CA99B4521
:104A100041F822400EDD51F823206FF07F4001EB7A
:104A2000830301EB8B0100E01A68821A43F8042B20
:104A30008B42F9D101244CE706D10BF1FF330CAACC
:104A400052F82350ED152AE70022874B01F054F865
:104A5000002840F0BE81054650E732463B46002024
:104A6000824900F00BFC06460F46002C3FF446AF8F
:104A7000059A00207D4900F083FB02460B46304634
:104A8000394600F0FBFB06460F4637E7012363E794
:104A900000260027EAE80267DA4509F108097FF4F1
:104AA0005EAE7AE6059A0CAB53F82930183ACDE998
:104AB000068505926BB909F18043013B0CA901EB16
:104AC000830353F8041909F1FF39183A0029F8D083
:104AD0000592059A0020654900F052FBB9F1000FDC
:104AE00004460D46C0F2E7814FF0000A4FEAC903C1
:104AF00070AA02EB030808930CAB03EB8906DFF8FE
:104B000070B108F10807043656F8040D00F004FDF2
:104B100022462B4600F06AFD5B4667E902015246D9
:104B20002046294600F062FD0CAB9E4204460D462D
:104B3000EAD1C3464FF0000A48AB03930193CDF886
:104B4000149009F10103DDF810900293B9F1000F00
:104B5000C0F23C8142A3D3E90023DFF818815D460F
:104B600000260027002403E0544510DCF8E8022367
:104B7000F5E8020100F03AFD02460B4630463946A0
:104B800000F07EFB0134A14506460F46ECDA019B9E
:104B90000AF1010AE3E802670193029BABF1080BFB
:104BA0009A45D3D1A29BDDF81490032B45D8DFE8BA
:104BB00013F0EC0006000600650048AB03930024E8
:104BC000B9F1000F21460CDB039B984603EBC905A6
:104BD000083575E90223204600F052FBA84504463B
:104BE000F7D1079B002B40F0368126460F46224620
:104BF0000B460B9C0399C4E90067D1E9000100F062
:104C00003DFBB9F1000F07460E4611DD3146012488
:104C10004E46039D3846F5E9022300F031FB01348E
:104C2000A6420746F6DA079B0E46002B40F0258188
:104C30003A4633460B99C1E90223069B03F007006D
:104C40000DF5197DBDE8F08F0BF1FF320CAB53F879
:104C500022300CA9C3F3160341F822304BE600BF03
:104C600000000040FB21F93F0000E03F0000F03F62
:104C70000000703E805D010848AB0393B9F1000F5E
:104C800040F33581039A4FEAC9030193D318CDF855
:104C900008909846D3E900AB914658E9026752461E
:104CA0005B463046394600F0EBFA04460D460246B4
:104CB0000B463046394600F0E1FA52465B4600F0BA
:104CC000DFFAC8E9000168E90245C145A246AB46E2
:104CD000E3D1DDF80890B9F1010F40F30881019BA1
:104CE000039A0DF5947B13449A46D3E90067019328
:104CF0005AE9028932463B464046494600F0C0FA2E
:104D000004460D4602460B464046494600F0B6FAB8
:104D100032463B4600F0B4FACAE900016AE90245AE
:104D2000D34526462F46E3D100231946019C039A1A
:104D3000083402F110051E4674E90223304600F0E3
:104D40009FFAA5420346F6D18C46039A1146D2E952
:104D50000082D1E902E90799002900F091800B9CBB
:104D600009F100402361069B02F100420CF1004171
:104D7000E06003F0070062606161C4F80080C4F87D
:104D800008E00DF5197DBDE8F08F0023089D039F15
:104D900008353D442E4619461C4676E90223204636
:104DA00000F06EFAB7420346F6D10C46079A0AB1F4
:104DB00004F10044184621460B9BC3E90001069B01
:104DC00003F007000DF5197DBDE8F08F00260027E0
:104DD000DDE6BBF1000F08F101087EDD022566E586
:104DE000002476E5CDE90685059D304639466A42C0
:104DF00000F0C6F900223F4B06460F4600F07CFE4D
:104E000000B300223C4B3046394600F0EFFB00F087
:104E10009DFE044600F080FB0022364B00F0E6FBCE
:104E20000B4602463946304600F028FA00F08EFE66
:104E30000BF101090CAB183543F82B00059543F82D
:104E4000294046E63046394600F080FE0CABD94694
:104E500043F82B003DE60B4601F100450B9E0399FC
:104E6000C6E90045D1E90001224600F007FAB9F190
:104E7000000F07460E463FF7C9AE06F10046D7E6DB
:104E800018464646744617464D4661460B9BC3E995
:104E90000401C3E90067C3E90245069B03F007006C
:104EA0000DF5197DBDE8F08FA7F108030393079B6B
:104EB000DB00029371E4A29B032B3FF6BEAE01A27E
:104EC00052F823F0D54E0008BB4B0008BB4B00083E
:104ED000794C000800231C4668E732463B46002018
:104EE000064900F0CBF9022506460F4606E50023E9
:104EF0009C462AE7000070410000703E0000F03F31
:104F00002DE9F04F21F00046B6F1795F85B00C46EF
:104F100090469946054604DA00F018FE002800F095
:104F200085802A4623462846214600F05FFB064638
:104F30000F4602460B462846214600F057FB3EA38B
:104F4000D3E9002382468B463046394600F04EFBBB
:104F50003BA3D3E9002300F091F932463B4600F031
:104F600045FB39A3D3E9002300F08AF932463B46DA
:104F700000F03CFB36A3D3E9002300F07FF9324672
:104F80003B4600F033FB34A3D3E9002300F078F96B
:104F90000E9BCDE900019BB30022334B40464946AE
:104FA00000F024FBDDE90023CDE90201504659461B
:104FB00000F01CFB02460B46DDE9020100F05EF941
:104FC00032463B4600F012FB42464B4600F056F993
:104FD00023A3D3E9002306460F465046594600F066
:104FE00005FB02460B463046394600F049F90246B9
:104FF0000B462846214600F041F905B0BDE8F08F88
:1050000002460B463046394600F0F0FA14A3D3E9C5
:10501000002300F033F952465B4600F0E7FA2A46D7
:10502000234600F02DF905B0BDE8F08F2846214653
:1050300005B0BDE8F08F00BF7CD5CF5A3AD9E53D29
:10504000EB9C2B8AE6E55A3E7DFEB157E31DC73E39
:10505000D561C119A0012A3FA6F810111111813F95
:10506000495555555555C53F0000E03F21F00043D7
:105070001946704700000000C1F30A522DE9F843B9
:10508000A2F2FF36132E0B460D460446884607460D
:105090001DDC002E3DDB384A42FA06F901EA09021E
:1050A000024319D032A3D3E9002300F0E9F800222B
:1050B000002300F02BFDD0B3002D04DA4FF4801351
:1050C00043FA06F6B04428EA090500272FE0332EFC
:1050D00006DDB6F5806F2FD019462046BDE8F8836F
:1050E0004FF0FF39A2F2134229FA02F919EA000F30
:1050F000F2D01FA3D3E9002300F0C2F8002200235E
:1051000000F004FD98B1002D24DB27EA090745468D
:105110000DE017A3D3E9002300F0B2F8002200232A
:1051200000F0F4FC18B1002D0BDB00273D463C4697
:1051300029462046BDE8F883024600F0A1F804465F
:10514000CBE725F000430D4A1F43002F18BF15463B
:105150000027ECE7142E08D00123C6F1340603FA29
:1051600006F6371928BF9844CFE705F10108CCE7C8
:105170009C7500883CE4377EFFFF0F000000F0BF05
:10518000F8B5C1F30A5304460D460E4617460BBB4D
:10519000034621F0004633431BD02F4B002200F082
:1051A00025FA2E4B04469F420D4637DB0E46C1F3CF
:1051B0000A53363B40F2FE723B4493421ADC002B0A
:1051C00011DD26F0FF4626F4E00646EA03552046A8
:1051D0002946F8BD40F2FF729342EBD102460B46DE
:1051E00000F04EF8F8BD13F1350F1DDA4CF25033D4
:1051F0009F420CDD14A1D1E9000122462B4600F0AC
:1052000031F811A3D3E9002300F0F0F9F8BD2246EC
:105210000FA1D1E900012B4600F024F80CA3D3E93B
:10522000002300F0E3F9F8BD26F0FF4626F4E0067F
:10523000363346EA0355204629460022084B00F043
:10524000D5F9F8BDAFF300809C7500883CE4377E4B
:1052500059F3F8C21F6EA50100005043B03CFFFF98
:105260000000903C03F0004321F0004242EA0301B9
:10527000704700BF81F0004102E000BF83F00043AF
:1052800030B54FEA41044FEA430594EA050F08BFE1
:1052900090EA020F1FBF54EA000C55EA020C7FEAA5
:1052A000645C7FEA655C00F0E2804FEA5454D4EB22
:1052B0005555B8BF6D420CDD2C4480EA020281EAEC
:1052C000030382EA000083EA010180EA020281EA24
:1052D0000303362D88BF30BD11F0004F4FEA013176
:1052E0004FF4801C4CEA113102D0404261EB410185
:1052F00013F0004F4FEA03334CEA133302D052420B
:1053000063EB430394EA050F00F0A780A4F10104C6
:10531000D5F1200E0DDB02FA0EFC22FA05F2801800
:1053200041F1000103FA0EF2801843FA05F35941E6
:105330000EE0A5F120050EF1200E012A03FA0EFC65
:1053400028BF4CF0020C43FA05F3C01851EBE3718F
:1053500001F0004507D54FF0000EDCF1000C7EEBAC
:1053600000006EEB0101B1F5801F1BD3B1F5001FEA
:105370000CD349085FEA30004FEA3C0C04F1010409
:105380004FEA445212F5800F80F09A80BCF1004F32
:1053900008BF5FEA500C50F1000041EB045141EAB4
:1053A000050130BD5FEA4C0C404141EB010111F4B5
:1053B000801FA4F10104E9D191F0000F04BF014660
:1053C0000020B1FA81F308BF2033A3F10B03B3F13E
:1053D00020020CDA0C3208DD02F1140CC2F10C02CE
:1053E00001FA0CF021FA02F10CE002F11402D8BF2C
:1053F000C2F1200C01FA02F120FA0CFCDCBF41EAF8
:105400000C019040E41AA2BF01EB0451294330BDC6
:105410006FEA04041F3C1CDA0C340EDC04F11404A3
:10542000C4F1200220FA04F001FA02F340EA03007A
:1054300021FA04F345EA030130BDC4F10C04C4F1C0
:10544000200220FA02F001FA04F340EA03002946A0
:1054500030BD21FA04F0294630BD94F0000F83F4EA
:10546000801306BF81F480110134013D4EE77FEACD
:10547000645C18BF7FEA655C29D094EA050F08BF19
:1054800090EA020F05D054EA000C04BF19461046FA
:1054900030BD91EA030F1EBF0021002030BD5FEA3E
:1054A000545C05D14000494128BF41F0004130BD66
:1054B00014F580043CBF01F5801130BD01F00045BA
:1054C00045F0FE4141F470014FF0000030BD7FEA2D
:1054D000645C1ABF194610467FEA655C1CBF0B4628
:1054E000024650EA013406BF52EA033591EA030F3F
:1054F00041F4002130BD00BF90F0000F04BF002137
:10550000704730B54FF4806404F132044FF0000569
:105510004FF0000150E700BF90F0000F04BF0021E2
:10552000704730B54FF4806404F1320410F0004548
:1055300048BF40424FF000013EE700BF42004FEA43
:10554000E2014FEA31014FEA02701FBF12F07F43C0
:1055500093F07F4F81F06051704732F07F4208BF77
:10556000704793F07F4F04BF41F40021704730B57E
:105570004FF4607401F0004521F000411CE700BFCA
:1055800050EA010208BF704730B54FF000050AE04D
:1055900050EA010208BF704730B511F0004502D54E
:1055A000404261EB41014FF4806404F132045FEA50
:1055B000915C3FF4D8AE4FF003025FEADC0C18BFF9
:1055C00003325FEADC0C18BF033202EBDC02C2F1EB
:1055D000200300FA03FC20FA02F001FA03FE40EA7D
:1055E0000E0021FA02F11444BDE600BF70B54FF081
:1055F000FF0C4CF4E06C1CEA11541DBF1CEA13555F
:1056000094EA0C0F95EA0C0F00F0DEF82C4481EAC6
:10561000030621EA4C5123EA4C5350EA013518BFE6
:1056200052EA033541F4801143F4801338D0A0FBD3
:1056300002CE4FF00005E1FB02E506F00042E0FB80
:1056400003E54FF00006E1FB03569CF0000F18BF86
:105650004EF0010EA4F1FF04B6F5007F64F540742E
:1056600004D25FEA4E0E6D4146EB060642EAC621C1
:1056700041EA55514FEAC52040EA5E504FEACE2E2E
:10568000B4F1FD0C88BFBCF5E06F1ED8BEF1004F31
:1056900008BF5FEA500E50F1000041EB045170BDAD
:1056A00006F0004646EA010140EA020081EA0301F1
:1056B000B4EB5C04C2BFD4EB0C0541EA045170BDED
:1056C00041F480114FF0000E013C00F3AB8014F167
:1056D000360FDEBF002001F0004170BDC4F10004B0
:1056E000203C35DA0C341BDC04F11404C4F1200531
:1056F00000FA05F320FA04F001FA05F240EA02008C
:1057000001F0004221F0004110EBD37021FA04F6C1
:1057100042EB06015EEA430E08BF20EAD37070BD7B
:10572000C4F10C04C4F1200500FA04F320FA05F0DA
:1057300001FA04F240EA020001F0004110EBD370DC
:1057400041F100015EEA430E08BF20EAD37070BD4C
:10575000C4F1200500FA05F24EEA020E20FA04F325
:1057600001FA05F243EA020321FA04F001F00041D4
:1057700021FA04F220EA020000EBD3705EEA430E45
:1057800008BF20EAD37070BD94F0000F0FD101F074
:105790000046400041EB010111F4801F08BF013CAD
:1057A000F7D041EA060195F0000F18BF704703F0EB
:1057B0000046520043EB030313F4801F08BF013D72
:1057C000F7D043EA0603704794EA0C0F0CEA13552E
:1057D00018BF95EA0C0F0CD050EA410618BF52EAE8
:1057E0004306D1D181EA030101F000414FF00000EE
:1057F00070BD50EA410606BF1046194652EA4306FC
:1058000019D094EA0C0F02D150EA013613D195EA6F
:105810000C0F05D152EA03361CBF104619460AD1B7
:1058200081EA030101F0004141F0FE4141F47001C1
:105830004FF0000070BD41F0FE4141F4780170BDB1
:1058400070B54FF0FF0C4CF4E06C1CEA11541DBF16
:105850001CEA135594EA0C0F95EA0C0F00F0A7F818
:10586000A4EB050481EA030E52EA03354FEA013145
:1058700000F088804FEA03334FF0805545EA131358
:1058800043EA12634FEA022245EA111545EA106520
:105890004FEA00260EF000419D4208BF964244F1B7
:1058A000FD0404F5407402D25B084FEA3202B61AD6
:1058B00065EB03055B084FEA32024FF480104FF4AA
:1058C000002CB6EB020E75EB030E22BFB61A75461E
:1058D00040EA0C005B084FEA3202B6EB020E75EBB1
:1058E000030E22BFB61A754640EA5C005B084FEA19
:1058F0003202B6EB020E75EB030E22BFB61A7546E6
:1059000040EA9C005B084FEA3202B6EB020E75EBF0
:10591000030E22BFB61A754640EADC0055EA060EB1
:1059200018D04FEA051545EA16754FEA06164FEAF4
:10593000C30343EA52734FEAC2025FEA1C1CC0D1A0
:1059400011F4801F0BD141EA00014FF000004FF02D
:10595000004CB6E711F4801F04BF01430020B4F1EE
:10596000FD0C88BFBCF5E06F3FF6AFAEB5EB030CA6
:1059700004BFB6EB020C5FEA500C50F1000041EBA3
:10598000045170BD0EF0004E4EEA113114EB5C0470
:10599000C2BFD4EB0C0541EA045170BD41F4801143
:1059A0004FF0000E013C90E645EA060E8DE60CEA4B
:1059B000135594EA0C0F08BF95EA0C0F3FF43BAF68
:1059C00094EA0C0F0AD150EA01347FF434AF95EA1F
:1059D0000C0F7FF425AF104619462CE795EA0C0F03
:1059E00006D152EA03353FF4FDAE1046194622E7D0
:1059F00050EA410618BF52EA43067FF4C5AE50EAAA
:105A000041047FF40DAF52EA43057FF4EBAE12E799
:105A10004FF0FF3C06E000BF4FF0010C02E000BF7A
:105A20004FF0010C4DF804CD4FEA410C7FEA6C5C5D
:105A30004FEA430C18BF7FEA6C5C1BD001B050EA00
:105A4000410C0CBF52EA430C91EA030F02BF90EAEB
:105A5000020F0020704710F1000F91EA030F58BFAA
:105A6000994208BF90422CBFD8176FEAE37040F00C
:105A7000010070474FEA410C7FEA6C5C02D150EAAA
:105A8000013C07D14FEA430C7FEA6C5CD6D152EA65
:105A9000033CD3D05DF8040B704700BF844610462A
:105AA00062468C461946634600E000BF01B5FFF729
:105AB000B7FF002848BF10F1000F01BD4DF808EDF9
:105AC000FFF7F4FF0CBF012000205DF808FB00BFCA
:105AD0004DF808EDFFF7EAFF34BF012000205DF824
